{
  "contractName": "mortal",
  "abi": [
    {
      "constant": true,
      "inputs": [],
      "name": "kill",
      "outputs": [],
      "payable": false,
      "stateMutability": "view",
      "type": "function"
    }
  ],
  "bytecode": "0x6060604052336000806101000a81548173ffffffffffffffffffffffffffffffffffffffff021916908373ffffffffffffffffffffffffffffffffffffffff160217905550610112806100536000396000f300606060405260043610603f576000357c0100000000000000000000000000000000000000000000000000000000900463ffffffff16806341c0e1b5146044575b600080fd5b3415604e57600080fd5b60546056565b005b6000809054906101000a900473ffffffffffffffffffffffffffffffffffffffff1673ffffffffffffffffffffffffffffffffffffffff163373ffffffffffffffffffffffffffffffffffffffff16141560e4576000809054906101000a900473ffffffffffffffffffffffffffffffffffffffff1673ffffffffffffffffffffffffffffffffffffffff16ff5b5600a165627a7a72305820c646e7a6bb36cbbac6e0d4058cd52a4d2e8fa41de6f09367a91807a0259ca1570029",
  "source": "pragma solidity ^0.4.0;\r\n\r\nimport \"./owned.sol\";\r\n\r\n contract mortal is owned {\r\n    function kill() constant public {\r\n        if(msg.sender == owner) {\r\n            selfdestruct(owner);\r\n        }\r\n    }\r\n}    \r\n",
  "sourcePath": "C:\\xampp\\htdocs\\blockchain\\firstproject\\test2\\contracts\\mortal.sol",
  "compiler": {
    "name": "solc",
    "version": "0.4.18+commit.9cf6e910.Emscripten.clang"
  },
  "schemaVersion": "1.0.1",
  "updatedAt": "2017-12-01T18:25:20.214Z"
}