{
  "contractName": "MyWallet",
  "abi": [
    {
      "constant": false,
      "inputs": [
        {
          "name": "proposal_id",
          "type": "uint256"
        }
      ],
      "name": "confirmPoposal",
      "outputs": [
        {
          "name": "",
          "type": "bool"
        }
      ],
      "payable": false,
      "stateMutability": "nonpayable",
      "type": "function"
    },
    {
      "constant": false,
      "inputs": [
        {
          "name": "_to",
          "type": "address"
        },
        {
          "name": "_value",
          "type": "uint256"
        },
        {
          "name": "_reason",
          "type": "string"
        }
      ],
      "name": "spendMoneyOn",
      "outputs": [
        {
          "name": "",
          "type": "uint256"
        }
      ],
      "payable": false,
      "stateMutability": "nonpayable",
      "type": "function"
    },
    {
      "constant": true,
      "inputs": [],
      "name": "kill",
      "outputs": [],
      "payable": false,
      "stateMutability": "view",
      "type": "function"
    },
    {
      "payable": true,
      "stateMutability": "payable",
      "type": "fallback"
    },
    {
      "anonymous": false,
      "inputs": [
        {
          "indexed": true,
          "name": "_from",
          "type": "address"
        },
        {
          "indexed": false,
          "name": "_amount",
          "type": "uint256"
        }
      ],
      "name": "receivedFunds",
      "type": "event"
    },
    {
      "anonymous": false,
      "inputs": [
        {
          "indexed": true,
          "name": "_from",
          "type": "address"
        },
        {
          "indexed": true,
          "name": "_to",
          "type": "address"
        },
        {
          "indexed": false,
          "name": "_reason",
          "type": "string"
        }
      ],
      "name": "proposalReceived",
      "type": "event"
    }
  ],
  "bytecode": "0x6060604052336000806101000a81548173ffffffffffffffffffffffffffffffffffffffff021916908373ffffffffffffffffffffffffffffffffffffffff16021790555061076c806100536000396000f300606060405260043610610057576000357c0100000000000000000000000000000000000000000000000000000000900463ffffffff1680630d769713146100b1578063192997e7146100ec57806341c0e1b514610185575b60003411156100af573373ffffffffffffffffffffffffffffffffffffffff167f3f638da77ee3d49db2211092b965c9c7c2fcb68fea5e8f85986200f8776f6a1d346040518082815260200191505060405180910390a25b005b34156100bc57600080fd5b6100d2600480803590602001909190505061019a565b604051808215151515815260200191505060405180910390f35b34156100f757600080fd5b61016f600480803573ffffffffffffffffffffffffffffffffffffffff1690602001909190803590602001909190803590602001908201803590602001908080601f01602080910402602001604051908101604052809392919081815260200183838082843782019150505050505091905050610337565b6040518082815260200191505060405180910390f35b341561019057600080fd5b61019861060a565b005b6000806000809054906101000a900473ffffffffffffffffffffffffffffffffffffffff1673ffffffffffffffffffffffffffffffffffffffff163373ffffffffffffffffffffffffffffffffffffffff16141561033157600260008481526020019081526020016000209050600073ffffffffffffffffffffffffffffffffffffffff168160000160009054906101000a900473ffffffffffffffffffffffffffffffffffffffff1673ffffffffffffffffffffffffffffffffffffffff1614151561032f57600115158160040160009054906101000a900460ff16151514151561032e5760018160040160006101000a81548160ff0219169083151502179055508060010160009054906101000a900473ffffffffffffffffffffffffffffffffffffffff1673ffffffffffffffffffffffffffffffffffffffff166108fc82600201549081150290604051600060405180830381858888f19350505050156103085760019150610330565b60008160040160006101000a81548160ff02191690831515021790555060009150610330565b5b5b5b50919050565b6000803373ffffffffffffffffffffffffffffffffffffffff166000809054906101000a900473ffffffffffffffffffffffffffffffffffffffff1673ffffffffffffffffffffffffffffffffffffffff1614156103d7578473ffffffffffffffffffffffffffffffffffffffff166108fc859081150290604051600060405180830381858888f1935050505090508015156103d257600080fd5b610601565b60016000815480929190600101919050555060a0604051908101604052803373ffffffffffffffffffffffffffffffffffffffff1681526020018673ffffffffffffffffffffffffffffffffffffffff1681526020018581526020018481526020016000151581525060026000600154815260200190815260200160002060008201518160000160006101000a81548173ffffffffffffffffffffffffffffffffffffffff021916908373ffffffffffffffffffffffffffffffffffffffff16021790555060208201518160010160006101000a81548173ffffffffffffffffffffffffffffffffffffffff021916908373ffffffffffffffffffffffffffffffffffffffff16021790555060408201518160020155606082015181600301908051906020019061050992919061069b565b5060808201518160040160006101000a81548160ff0219169083151502179055509050508473ffffffffffffffffffffffffffffffffffffffff163373ffffffffffffffffffffffffffffffffffffffff167f24bb5c74895c3fd8414e0d433edece1a9f0833ae289514c568d306738c5f1a77856040518080602001828103825283818151815260200191508051906020019080838360005b838110156105bd5780820151818401526020810190506105a2565b50505050905090810190601f1680156105ea5780820380516001836020036101000a031916815260200191505b509250505060405180910390a36001549150610602565b5b509392505050565b6000809054906101000a900473ffffffffffffffffffffffffffffffffffffffff1673ffffffffffffffffffffffffffffffffffffffff163373ffffffffffffffffffffffffffffffffffffffff161415610699576000809054906101000a900473ffffffffffffffffffffffffffffffffffffffff1673ffffffffffffffffffffffffffffffffffffffff16ff5b565b828054600181600116156101000203166002900490600052602060002090601f016020900481019282601f106106dc57805160ff191683800117855561070a565b8280016001018555821561070a579182015b828111156107095782518255916020019190600101906106ee565b5b509050610717919061071b565b5090565b61073d91905b80821115610739576000816000905550600101610721565b5090565b905600a165627a7a723058201d0d9475b81e3131ca2d17ee508fe61f2eea13fa7a80b87d4041f33c4ae38ac80029",
  "source": "pragma solidity ^0.4.0;\r\n\r\nimport \"./mortal.sol\";\r\n\r\ncontract MyWallet is mortal {\r\n    event receivedFunds(address indexed _from, uint256 _amount);\r\n    event proposalReceived(address indexed _from, address indexed _to, string _reason);\r\n    \r\n    struct Proposal {\r\n        address _from;\r\n        address _to;\r\n        uint256 _value;\r\n        string _reason;\r\n        bool sent;\r\n    }\r\n    \r\n    uint proposal_counter;\r\n    \r\n    mapping(uint256 => Proposal) m_proposals;\r\n    \r\n    \r\n    function spendMoneyOn(address _to,uint256 _value, string _reason) public returns (uint256)  {\r\n        if(owner == msg.sender) {\r\n            bool sent = _to.send(_value);\r\n            if(!sent) {\r\n                revert();\r\n            }\r\n        } else {\r\n           proposal_counter++;\r\n           m_proposals[proposal_counter] = Proposal(msg.sender, _to, _value, _reason, false);\r\n           proposalReceived(msg.sender, _to, _reason);\r\n           return proposal_counter;\r\n        }\r\n    }\r\n    \r\n    function confirmPoposal(uint256 proposal_id) public onlyowner returns (bool) {\r\n        Proposal proposal = m_proposals[proposal_id];\r\n        if(proposal._from != address(0)) {\r\n            if(proposal.sent != true) {\r\n                proposal.sent = true;\r\n                if(proposal._to.send(proposal._value)) {\r\n                    return true;\r\n                }\r\n                proposal.sent = false;\r\n                return false;\r\n            }\r\n        }\r\n    }\r\n    \r\n    function() payable public {\r\n        if(msg.value > 0) {\r\n            receivedFunds(msg.sender, msg.value);\r\n        }\r\n    }\r\n    \r\n    \r\n}",
  "sourcePath": "C:\\xampp\\htdocs\\blockchain\\firstproject\\test2\\contracts\\MyWallet.sol",
  "compiler": {
    "name": "solc",
    "version": "0.4.18+commit.9cf6e910.Emscripten.clang"
  },
  "schemaVersion": "1.0.1",
  "updatedAt": "2017-12-01T18:25:20.213Z"
}